:020000040800F2
:10000000D80C0020890100081923000811230008DA
:1000100015230008C503000825270008000000007C
:100020000000000000000000000000002123000884
:10003000E1030008000000001D230008252300083C
:10004000A3010008A3010008A3010008A301000800
:10005000A3010008A3010008A3010008A3010008F0
:10006000A3010008A3010008A3010008C9030008B8
:10007000A3010008A3010008D5030008A30100089C
:10008000A3010008A3010008A3010008A3010008C0
:10009000A3010008A3010008A3010008A3010008B0
:1000A000A3010008A3010008A3010008A3010008A0
:1000B000A3010008A3010008A3010008A301000890
:1000C000A3010008A3010008A3010008A301000880
:1000D000A301000819270008A3010008A3010008D4
:1000E000A3010008A3010008A301000800F002F822
:1000F00000F03AF80AA090E8000C82448344AAF188
:100100000107DA4501D100F02FF8AFF2090EBAE885
:100110000F0013F0010F18BFFB1A43F0010318473B
:100120000831000028310000103A24BF78C878C197
:10013000FAD8520724BF30C830C144BF04680C60ED
:10014000704700000023002400250026103A28BF35
:1001500078C1FBD8520728BF30C148BF0B60704739
:100160001FB51FBD10B510BD00F031F81146FFF7E7
:10017000F7FF02F0D9FA00F04FF803B4FFF7F2FFEF
:1001800003BC00F057F800000948804709480047C1
:10019000FEE7FEE7FEE7FEE7FEE7FEE7FEE7FEE737
:1001A000FEE7FEE704480549054A064B7047000094
:1001B000D5230008ED000008D8060020D80C002048
:1001C000D8080020D808002070477047704775464F
:1001D00000F02CF8AE4605006946534620F00700B3
:1001E000854618B020B5FFF7DDFFBDE820404FF091
:1001F00000064FF000074FF000084FF0000BAC4630
:10020000ACE8C009ACE8C009ACE8C009ACE8C0097A
:1002100021F007018D46704710B50446AFF300800A
:100220002046BDE81040FFF7A8BF00000048704717
:100230001000002001491820ABBEFEE72600020096
:1002400070470000B0B5044600688168C90709D04E
:10025000816821F00101816000F0AEFF21688968AA
:10026000C90701D10020B0BD054602E08068C00783
:10027000F8D000F0A1FF411B20680329F6D3816864
:10028000C907F3D0A06A40F01000A062E06A40F015
:100290000100E0620120B0BD0146406A826A12F0AE
:1002A000500F03D0006A026B084610470168826A4B
:1002B00042F400728262896801F46021B1F5602F16
:1002C00001D1017B11B100F0E1B900BF816A21F4D5
:1002D00080718162816AC90448BF00F0D7B9816A20
:1002E00041F00101816200F0D1B90000406A816AE9
:1002F00041F040018162C16A41F00401C16200F035
:10030000DBBA0000406A00F053BA0000B0B582B01A
:1003100004460020019021688A68D2074FD188687E
:1003200040F00100886040F20800C2F2000000685E
:100330004DF68361C4F21B31A0FB0101880C0190D2
:100340000198A0B1019801380190019878B1019805
:1003500001380190019850B101980138019001983D
:1003600028B101980138019001980028EAD100F0E5
:1003700023FF21688968C9071CD1054603E000BF37
:100380008068C0071AD100F017FF411B20680329BD
:10039000F6D38168C907F3D1A06A40F01000A062CB
:1003A000E06A40F00100E062002084F824000120AF
:1003B00002B0B0BD002002B0B0BD00BF002002B04E
:1003C000B0BD0000FEE7000040F2D020C2F2000005
:1003D00000F07CBC40F21430C2F2000000F076BCA9
:1003E00070470000EFF3108072B600BFFEE7000018
:1003F00070B582B004460020019094F824000128D2
:1004000004D10225284602B070BD00BF012084F847
:1004100024002046FFF716FF2046FFF777FF05462A
:10042000002867D1A06A41F2021188430230A0621D
:1004300040F20800C2F200000668022000F07AFFD5
:10044000B6FBF0F0400001900198A0B1019801388E
:100450000190019878B1019801380190019850B14C
:10046000019801380190019828B101980138019054
:1004700001980028EAD12068816841F00801816074
:1004800000F09AFE21688A6812070DD4886840F04F
:100490000400886000F090FE21688968490713D441
:1004A00001206FF0030121E0064602E088680007A2
:1004B000ECD500F081FE801B21680B28F6D38868FC
:1004C0000007F3D50EE000BF064602E08068400753
:1004D000E6D500F071FE811B20680B29F6D38168F8
:1004E0004907F3D5012510206FF01201A26A1140CF
:1004F0000843A062002084F82400284602B070BDA2
:1005000010B581B00022009290F82420012A03D176
:100510000221084601B010BD4B680122062B80F86D
:10052000242017D8D0F800C003EB83035A1F1F23E1
:10053000DCF834E003FA02F40B682EEA040403FA50
:1005400002F22243CCF83420092B03EB430219D9E1
:1005500036E000BFD0F800C00C2B03EB83021DD89F
:10056000233A1F23DCF830E003FA02F40B682EEA8A
:10057000040403FA02F22243CCF83020092B03EBE7
:1005800043021DD8DCF81030072489689440A34347
:1005900091401943CCF81010002130E0413A1F235C
:1005A000DCF82CE003FA02F40B682EEA040403FAE8
:1005B00002F22243CCF82C20092B03EB4302E1D9B1
:1005C000DCF80CE01E3A0724896894402EEA040403
:1005D000914023F001022143102ACCF80C100DD1D8
:1005E00042F20841C4F20101A1F1080294450DD084
:1005F000816A41F020018162012100E00021002296
:1006000080F82420084601B010BD00BF0A6812021D
:1006100030D40A68102B42F400020A602CD140F258
:100620000801C2F2000109684DF68362C4F21B3270
:10063000A1FB0212910C01EB81014900009100998C
:10064000E1B10099013900910099C9B100990139CE
:1006500000910099B1B1009901390091009999B1C7
:10066000009901390091009900294FF00001E8D16B
:10067000C5E700BF0021C2E70021C0E70021BEE7B7
:100680000021BCE70021BAE70021B8E72DE9F047D7
:10069000006842F20041C4F20101884218BFBDE87F
:1006A000F08740F2D009C2F2000909F5807080217C
:1006B00002F020F940F27008C2F2000898F8000039
:1006C000002869D1012040F2505C88F80000002029
:1006D0006FF00C014FF0FF32C2F2000C4FF0FF0A36
:1006E00009EB4007B7F8003100EB40050CEB020EB8
:1006F00065448EF801A0C3F30326AB70B7F802314E
:100700006E70C3F303266B71B7F804312E71C3F317
:1007100003262B72B7F80631EE71C3F30326AE72CF
:100720000CEB010685F803A085F806A085F809A062
:100730003376B7F8083186F819A0C3F30324B476EA
:10074000AB73B7F80A310830C3F303246B74B7F8FE
:100750000C312C74C3F303242B75B7F80E31EC74F1
:10076000C3F303241831802802F1180285F80FA082
:1007700085F812A085F815A0AC758EF81830AFD1A9
:1007800040F2EC4040F25051C2F20000C2F20001CF
:100790004FF4C07201F04CFD40F2D00108F130007E
:1007A000C2F200014FF48072BDE8F04700F084B956
:1007B000B0B5006842F20041C4F20101884206D19E
:1007C00040F2D000C2F20000802102F093F840F223
:1007D0007000C2F200000178002918BFB0BD0121ED
:1007E000017040F2D000C2F2000040F2505C0E30C6
:1007F0000021C2F2000C4FF0FF0E00BF30F80E3C9B
:100800000CEB0102C3F30324937030F80C3C5470DA
:10081000C3F30324537130F80A3C1471C3F3032467
:10082000D471137201F1090330F8084C43F002034C
:100830000CF8034030F8063CC4F30325C3F303244B
:10084000937330F8043C5473C3F30324537430F8A7
:10085000023C1474C3F30324D47430F8104B0CF826
:1008600001E09572137501F11503C4F303251831E6
:1008700082F803E082F806E082F809E082F80CE0F2
:1008800082F80FE082F812E082F815E0957543F0E7
:100890000202B1F5C07F0CF80240AFD140F2EC404B
:1008A00040F25051C2F20000C2F200014FF4C07297
:1008B000BDE8B04001F0BCBC70470000B0B50028F6
:1008C00000F0A8800446806A20B121688868C007CB
:1008D0000BD114E00020E06284F82400204600F0F0
:1008E0009BF821688868C00709D0886820F001005B
:1008F000886000F061FC21688A68D20726D1A06A6E
:10090000C0063AD4A06A41F2021290430230A062BB
:10091000E069D4E9013240EA030C531EB3FA83F3D1
:100920005D091346B2F5807F18BF2B02207D257B21
:1009300001284CEA450030D135B3A56A45F02005C1
:10094000A562E56A45F00105E56226E0054602E09C
:100950008868C007D3D000F02FFC401B2168032813
:10096000F6D38868C007F3D0A06A40F01000A062F8
:10097000E06A40F00100E062A06AA06A40F0100066
:10098000A0620120B0BD00BFD4F818C04EF600052B
:10099000CFF6FF7505EB4C352B434D68B2F5807FE4
:1009A00025F4694543EA05034B608B684FF2FD75FA
:1009B000CFF6E17503EA050343EA00038B6001D03B
:1009C000012A07D122690023CFF6F07303EB02520C
:1009D00001E000BF0022CB6A23F470031A43CA620D
:1009E000896840F6FE62CFF61F721140814207D13E
:1009F0000020E062A16A012262F30101A162B0BDA0
:100A0000A06A40F0100020F00200A062E06A40F00E
:100A10000100E0620120B0BD70B586B0044640F62A
:100A20000000C4F20100216800F5E0520026914266
:100A30000596049602D006B070BD00BF41F21801C1
:100A4000C4F202010A6842F400720A600A6802F401
:100A500000720192019A0A6842F004020A60096871
:100A600001F00401019101991021029103210391E8
:100A700002A900F08DFA40F2D0250820C2F200054C
:100A8000C4F202004FF48072C5E9000605F11000BF
:100A900080214FF480634FF4005C80E84C102846BE
:100AA000C5E9026100F0E2F9002818BFFFF79AFCDF
:100AB00025626C6206B070BD70B5154604460068CC
:100AC00042F60002C4F2010290420E4605D042F204
:100AD0000041C4F20101884209D142F20440C4F24B
:100AE0000100006810F4702F1CBF012070BD94F845
:100AF0002400012804BF022070BD012084F82400D6
:100B00002046FFF703FC18B1002184F8241070BDC3
:100B100042F204402168A26AC4F2010040F6017367
:100B20009A4300F57F7302F580729942A26243D026
:100B3000A06A20F48010A0624868400504D5A06A2D
:100B4000012262F30D30A062A26A0020D2044FF0AD
:100B5000000244BFE26A22F00602E26284F8240046
:100B6000206A40F29922C0F6000240F2053340F2BA
:100B7000ED2C00F1280EC0F60003C0F6000C8EE844
:100B80000C106FF002020A608A682B4642F48072F1
:100B90008A604C31324600F0ADF92068816801F47A
:100BA00060228168B2F5602F0CBF41F4A00141F4CE
:100BB00080118160002070BD026812F4702FB7D0E0
:100BC000A26A42F48012A26200684005BCD5B6E772
:100BD000014690F82100022816D10868D1E90FC318
:100BE000026822F00E020260026822F00102026036
:100BF000012000FA03F2CCF8042081F82100002043
:100C0000002281F820207047042088630120002200
:100C100081F820207047000080B590F8211002294B
:100C200024D10268116821F00E0111602F21136890
:100C3000C4F202018A4240F20401C4F2020123F02C
:100C40000103136016DD3023C4F202039A421DD063
:100C50004423C4F202039A421CD05823C4F2020374
:100C60009A421DD14FF4803322E000BF04218163FA
:100C7000012080BD0823C4F202039A420ED01C2337
:100C8000C4F202039A420BD1102311E04FF4807397
:100C90000EE000BF4FF480530AE000BF012307E0DD
:100CA00001F1680C4FF08073624508BF4FF4801368
:100CB0000B60012180F82110426B002180F8201088
:100CC0000AB190470021084680BD000010B5D0E968
:100CD0000FCE0168DCF800300A6823FA0EF35C07D7
:100CE0002AD512F0040427D00A68920603D40A68B1
:100CF00022F004020A602F22C4F20202914240F262
:100D00000402C4F202025BDD3023C4F20203994202
:100D100072D04423C4F20203994273D05823C4F220
:100D20000203994240F07A804FF480231360C16A35
:100D3000002940F098806FE09C0727D512F002044C
:100D400024D00A68920606D40A6822F00A020A60D1
:100D5000012280F821202F22C4F20202914240F2A7
:100D60000402C4F202023BDD3023C4F202039942C2
:100D700060D04423C4F2020399425FD05823C4F2E6
:100D80000203994260D14FF4003365E01B0743D55D
:100D900012F0080208BF10BD0A6822F00E020A60B5
:100DA000012101FA0EF2CCF80420816380F82110B1
:100DB000016B0022002980F8202054D12CE000BFD4
:100DC0000823C4F20203994222D01C23C4F2020376
:100DD000994223D140231360C16A002943D11BE00B
:100DE0000823C4F2020399422CD01C23C4F202034C
:100DF000994229D120232FE04FF480631360C16A08
:100E000089BB09E04FF480431360C16A59BB03E01A
:100E100004231360C16A31BB10BD00BF02F1680436
:100E20004FF08063A14208BF4FF480031360C16A92
:100E3000C9B9F1E74FF400730EE000BF4FF400535F
:100E40000AE000BF022307E002F168044FF00073DC
:100E5000A14208BF4FF400131360816A00220029E9
:100E600080F82020D8D0BDE810400847014600286F
:100E70004FF0010008BF70472DE9F043D1F800C0E2
:100E80004FF6F873CBF6FD734CF6CD426344CCF6C7
:100E9000CC42A3FB02236FF0030707EA930300276A
:100EA000C4F2020701F10C09C1E90F730223D1E971
:100EB000012E99E87002D1F81C8081F82130DCF80D
:100EC000003043F6F077BB431A4342EA0E02224356
:100ED0002A43324342EA090242EA0802CCF80020DF
:100EE00000228A6381F8210081F820200020BDE8DB
:100EF000F0437047F0B590F820C0BCF1010F32D03C
:100F00004FF0010E80F820E090F821C0BCF1010FF5
:100F100026D14FF0020C80F821C04FF0000CC0F831
:100F200038C0D0E900C4C56AC66BDCF80070102C6C
:100F300027F00107CCF80070006C0EFA00F070602A
:100F40000846CCF8043004BF10460A46CCF8080026
:100F5000CCF80C20DCF8000045B140F00E000DE0AC
:100F6000002180F820100220F0BD00BF20F0040016
:100F7000CCF80000DCF8000040F00A00CCF80000DB
:100F8000DCF8000040F00100CCF800000020F0BDCB
:100F90002DE9F04F82B00E68002E00F0038141F27F
:100FA0000042C4F20102042340F2004E904208BF06
:100FB00003234FF6FF7CC4F2010E009300240123AB
:100FC000C1F2100C4FF0000A4FF0000949E000BFD9
:100FD000012704F00C030F229A402BEA020207FAC1
:100FE00003F34FEA9A051A4346F82520D1F804B0D6
:100FF00040F20C455FEACB22DEF8082054BF22EA1B
:10100000080242EA0802C4F20105CEF808202A6864
:101010005FEA8B2354BF22EA080242EA08022A60F0
:101020005FEA8B33DEF8042054BF22EA080242EA6A
:1010300008025FEACB33CEF80420DEF800204FF040
:10104000010354BF22EA080242EA0802CEF8002057
:101050000E680AF1010A36FA0AF204F1040400F0FB
:10106000A18003FA0AF816EA080FF1D04E68664527
:1010700012DC122E56D8DFE806F0350B45495555DF
:1010800055555555555555555555554D510000BF5C
:10109000D1F80C9046E000BF4FF6FF72C1F221027A
:1010A00096420FDC0022C1F2110296421AD00022B1
:1010B000C1F21202964215D00022C1F221029642DC
:1010C00010D02FE00022C1F2220296420AD0002264
:1010D000C1F23102964205D00022C1F2320296429C
:1010E00020D100BF8A684AB1012A14BFC0F8148019
:1010F000C0F810804FF0080914E000BF4FF0040959
:1011000010E000BFCA6802F108090BE04FF00009C7
:1011100008E000BFCA6802F1040903E0CA6802F1EE
:101120000C0900BF22460646BAF1080F24BF203A38
:10113000043637680F25954027EA050509FA02F2BB
:101140002A433260CA79D2067FF582AF41F2180392
:10115000C4F202031A68AEF57E7642F001021A600C
:101160001A6802F001020192019A2AF0030256F86D
:1011700002B040F60002C4F20102904210D040F6E4
:101180000042C4F2010290423FF422AF41F2000259
:10119000C4F20102009F904208BF022719E700BF76
:1011A000002716E702B0BDE8F08F0000002A08BF54
:1011B000090401617047000040F2D060C2F20000F3
:1011C0000068704740F2000040F2D061C2F20000B7
:1011D000C2F2000100780A681044086070470000FD
:1011E00080B542F20000C4F20200016841F0100133
:1011F0000160032000F08EF8002000F005F800F0F8
:1012000027F8002080BD000070B540F20006C2F251
:10121000000640F208013278C2F200014FF47A73FE
:101220000968B3FBF2F20446B1FBF2F1084600F0A4
:1012300061FC0F2C4FF0010508D838B94FF0FF3092
:1012400021460022002500F039F87460284670BD60
:1012500082B041F21800C4F202000168022241F09B
:1012600001010160016801F00101019101994168EA
:1012700041F080514160406800F08050009000983B
:101280000420C4F20100016862F31A61016002B037
:1012900070470000002848BF7047C1B200F01F002F
:1012A000012202FA00F04EF20012CEF2000242EAEF
:1012B000D10121F0030108607047000010B54EF61F
:1012C0000C5CCEF2000CDCF80030C3F3022E8EF082
:1012D0000704042C28BF0424BEF103034FF0FF3E93
:1012E0000EFA04F438BF0023A14399400EFA03F329
:1012F0009A43114300F00F0200F160430901043AE0
:1013000003F564436244002848BF02F10C031970DE
:1013100010BD00004EF60C51CEF200010A684FF6E7
:10132000FF031A4060F30A2242F0806040F0FD7033
:101330000860704780B5012818D0022836D01028E0
:1013400032D141F20401C4F202010A6851F8040CDE
:10135000C00129D5C2F383402DA3185CD2033DD42C
:1013600040F60012C0F23D02504343E041F2040057
:10137000C4F20200C16940F202320A40B2F5817F34
:1013800004BF4FF4004080BD01F44071B1F5407FCF
:101390001CD0B1F5007F07D1006A49F640418007B3
:1013A00001EAE07080BD00BF002080BD00F0B4F90C
:1013B00041F20401C4F2020109680222C1F3813141
:1013C00002EB4101B0FBF1F080BD00BF50F8040C0E
:1013D0004FF22441800301EAE07080BD0A6810A347
:1013E000C2F340429A5C41F20023C0F27A03B3FB9D
:1013F000F2F250430968490248BF80BD4AF6AB216A
:101400004000CAF6AA21A0FB0101480880BD00BF28
:1014100002030405060708090A0B0C0D0E0F101035
:10142000010200002DE9F04182B00446007841F24B
:101430001C06C007C4F202064AD0306810F080587B
:1014400008D1306840F080503060306800F0805043
:101450000190019847F20007C4F200073868C00500
:1014600012D4386840F480703860FFF7A5FE054656
:101470003868C00508D4FFF79FFE401B6428F7D9E1
:10148000032002B0BDE8F081706810F4407012D003
:10149000616801F4407188420DD0706840F24042AA
:1014A000C4F24222012320F4407113600023C007DC
:1014B000136071602AD17068616820F4407008433D
:1014C000B8F1000F706003D1306820F080503060B8
:1014D0002068810707D556F8181CA26821F44041FE
:1014E000114346F8181CC00604D4002002B0BDE821
:1014F000F08100BF56F8180CE16820F48000084322
:1015000046F8180C002002B0BDE8F081FFF754FE49
:10151000054641F2883700BF70688007CBD4FFF7DB
:101520004BFE401BB8424FF00300F5D9EBE700003B
:101530002DE9F04381B0002800F0858042F20008D8
:10154000C4F202080446D8F800000D4600F0070077
:1015500088420CD2D8F8000020F007002843C8F8D1
:101560000000D8F8000000F00700A8426BD1206806
:1015700041F204098107C4F2020917D5410705D5D4
:10158000D9F8001041F4E061C9F80010010705D551
:10159000D9F8001041F46051C9F80010D9F80010D2
:1015A000A26821F0F0011143C9F80010C00741D131
:1015B000D8F8000000F00700A8420CD9D8F80000C5
:1015C00020F007002843C8F80000D8F8000000F019
:1015D0000700A84237D12068410707D5D9F8001085
:1015E000E26821F4E0611143C9F80010000708D552
:1015F000D9F80000216920F4605040EAC100C9F820
:101600000000D9F8002002F00C00082841F2002068
:10161000C0F27A0050D143F21823C2F38341C0F6DE
:101620000003595CD2033BD440F60010C0F23D00E9
:10163000484341E0606802280AD001282AD159F8BD
:10164000041C890308D4012001B0BDE8F08300BF69
:1016500059F8041C8901F6D5D9F8001021F00301CE
:101660000843C9F80000FFF7A7FD064641F2883796
:10167000D9F80000616800F00C00B0EB810F97D042
:10168000FFF79AFD801BB842F2D9032001B0BDE8F4
:10169000F08300BF59F8041C8907D4D5DCE700BFEC
:1016A000D9F8002043F21623C2F34042C0F60003EB
:1016B0009A5C4843B0FBF2F0D9F8001043F2FE12F6
:1016C000C1F30311C0F60002515C40F2080220FA97
:1016D00001F140F20400C2F200000068C2F2000210
:1016E0001160FFF791FD002001B0BDE8F08300001C
:1016F00040F2080041F20401C2F20000C4F202010B
:101700000068096843F20E22C1F30221C0F600020C
:10171000515CC8407047000040F2080041F20401EB
:10172000C2F20000C4F202010068096843F20E220E
:10173000C1F3C221C0F60002515CC84070470000EE
:101740002DE9F04182B0002868D00446007841F2CB
:101750000006C007C4F2020625D0706800F00C0035
:1017600004281BD0706800F00C00082802D17068B3
:10177000C00313D46068002800F06881B0F5A02F82
:1017800000F07C81B0F5803F00F07C81306820F46F
:1017900080303060306820F4802076E1306880034B
:1017A00001D56068D0B32078800718D5706810F034
:1017B0000C0F07D0706800F00C0008286ED170681C
:1017C000C0036BD43068800702D52069012825D179
:1017D0003068616920F0F80040EAC100306020788C
:1017E00000071FD42078400732D4E56995B17068AE
:1017F00000F00C00082840F08F80012D0ED070689A
:10180000216A00F480328A4208D1616A00F47010C3
:10181000884203D1002002B0BDE8F081012002B06F
:10182000BDE8F081A069002862D00020C4F2422007
:101830000121C0F88014FFF7BFFC0546706A8007DD
:1018400000F18C80FFF7B8FC401B0228F6D92AE192
:10185000F06910F0805808D1F06940F08050F061D4
:10186000F06900F080500090009847F20007C4F241
:1018700000073868C00529D4386840F480703860A3
:10188000FFF79AFC054600BF3868C0051ED4FFF775
:1018900093FC401B6428F7D905E100BF20690028AC
:1018A00040F20000C4F2422000F082800121016079
:1018B000FFF782FC054600BF306880073FF588AF20
:1018C000FFF77AFC401B0228F6D9ECE0E06800281C
:1018D00000F08080052800F09780012800F09880B3
:1018E000306A20F001003062306A20F0040092E09B
:1018F0000020C4F242200021C0F88014FFF75CFCF5
:10190000054600BF706A80077FF56CAFFFF754FC97
:10191000401B0228F6D9C6E00027C4F24227002067
:101920003866FFF749FC022D05460BD1306880016F
:1019300040F1BE80FFF740FC401B02284FF003003F
:10194000F4D968E7306880017FF564AFFFF734FCB5
:10195000401B02284FF00300F4D95CE740F2080076
:10196000C2F20000006844F6D351C1F26201A0FB4C
:101970000101480A019000BF00BF0198411E0028E4
:1019800001913FF42FAF00BF0198411E0028019143
:101990003FF428AF00BF0198411E002801913FF499
:1019A00021AF00BF0198411E00280191E4D119E741
:1019B00000210160FFF700FC054600BF306880078A
:1019C0007FF50DAFFFF7F8FB401B02284FF0030037
:1019D000F4D920E7306A20F001003062306A20F04C
:1019E00004003062FFF7E8FB054641F2883700BF8C
:1019F000306A800720D5FFF7DFFB401BB8424FF06D
:101A00000300F5D907E700BF306A40F004003062F8
:101A1000306A40F001003062FFF7CEFB054641F22C
:101A2000883700BF306A800706D4FFF7C5FB401B2C
:101A3000B842F7D937E000BFB8F1000F7FF4D5AE58
:101A4000F06920F08050F061CFE600BF306820F4EC
:101A500080303060306820F480203060FFF7ACFBCD
:101A6000054600BF306880037FF59DAEFFF7A4FBFD
:101A7000401B64284FF00300F4D9CCE6306840F4F2
:101A800080203060306840F480303060FFF794FB95
:101A9000054600BF306880033FF585AEFFF78CFB3D
:101AA000401B6428F6D9032002B0BDE8F08100BFD6
:101AB000206AB0F5803F05D17168A26821F4003139
:101AC000114371607168626A21F474111143084313
:101AD000706001203866FFF76FFB044630688001B4
:101AE0003FF598AEFFF768FB001B02284FF003009C
:101AF000F4D990E6411E0020B0EB116F1CBF01200D
:101B000070474EF21002CEF2000251604EF62351A1
:101B1000CEF20001F0230B70072190601160704736
:101B20007047000070470000B0B582B004460068FE
:101B30000168C368426901F02F05202D03F02005DC
:101B400006D12DB1204602B0BDE8B04000F064BD22
:101B50005FEA017C1EBF02F0010E03F4907212EBEB
:101B60000E0253D1226B012A05D111F0100218BFC9
:101B700013F0100236D10A0622D513F080021FD0CE
:101B800094F8411021293FD1A168B1F5805F03D1BC
:101B90002169002900F07082216A4A1C22620978BA
:101BA0004160E18C01390A04E1842DD1C16821F042
:101BB0008001C160C16841F04001C16002B0B0BDA8
:101BC000490621D513F040011ED0C16821F0400123
:101BD000C1602021204684F8411002B0BDE8B04029
:101BE00000F084BB002101910168019141680191DD
:101BF00001994069400613D4A08DE18DE28D002A41
:101C000018BF884240F0BA8102B0B0BDCA0718BF01
:101C100013F4807240F0B6804A0700F1B980BEE04C
:101C2000E06B016849688AB2002AEDD0A38D9A4220
:101C3000EAD2E1858069202800F09C80206850E885
:101C4000030F216820F4807041E80302DAB12068B4
:101C500050E8030F216820F4807041E8030292B13C
:101C6000206850E8030F216820F4807041E80302E7
:101C70004AB1206850E8030F216820F4807041E8E1
:101C80000302002ADAD1206850E8050F216820F00D
:101C9000010041E80502DAB1206850E8050F21682B
:101CA00020F0010041E8050292B1206850E8050FDC
:101CB000216820F0010041E805024AB1206850E89F
:101CC000050F216820F0010041E80502002ADAD161
:101CD000206850E8050F216820F0400041E8050227
:101CE000DAB1206850E8050F216820F0400041E893
:101CF000050292B1206850E8050F216820F04000ED
:101D000041E805024AB1206850E8050F216820F03B
:101D1000400041E80502002ADAD1202084F8420080
:101D200000202063206850E8030F216820F0100095
:101D300041E80302DAB1206850E8030F216820F07F
:101D4000100041E8030292B1206850E8030F2168B7
:101D500020F0100041E803024AB1206850E8030F68
:101D6000216820F0100041E80302002ADAD1E06B7C
:101D7000FEF72EFF02206063A08DE18D401A81B234
:101D8000204674E1626C42F0010262644A0706D5A3
:101D9000BEF1000F03D0626C42F0020262648A0757
:101DA00006D5BEF1000F03D0626C42F004026264FB
:101DB000BCF1000F09D545EA0E02B2FA82F25209CF
:101DC00003D1626C42F008026264626C002A3FF444
:101DD0001BAF11F0200118BF002D03D0204600F0EA
:101DE0001BFC20684069616C00F0400001F00801B4
:101DF000401800F0B58000BF206850E8030F21684C
:101E000020F4907041E80302BAB3206850E8030F51
:101E1000216820F4907041E8030272B3206850E812
:101E2000030F216820F4907041E803022AB3206870
:101E300050E8030F216820F4907041E80302002A63
:101E4000DAD11AE0206850E8050F216820F001007F
:101E500041E80502DAB1206850E8050F216820F05A
:101E6000010041E8050292B1206850E8050F2168A1
:101E700020F0010041E805024AB1206850E8050F52
:101E8000216820F0010041E80502002ADAD1206B28
:101E9000012824D1206850E8030F216820F01000A9
:101EA00041E80302DAB1206850E8030F216820F00E
:101EB000100041E8030292B1206850E8030F216846
:101EC00020F0100041E803024AB1206850E8030FF7
:101ED000216820F0100041E80302002ADAD1202016
:101EE00084F84200002020632068406940063FD506
:101EF000206850E8050F216820F0400041E8050205
:101F0000DAB1206850E8050F216820F0400041E870
:101F1000050292B1206850E8050F216820F04000CA
:101F200041E805024AB1206850E8050F216820F019
:101F3000400041E80502002ADAD1E06BC0B142F26C
:101F4000D931C0F600014163FEF766FE00283FF478
:101F50005BAEE06B416B02B0BDE8B040084700BF2C
:101F60002046FFF7DFFD0020606402B0B0BD00BF77
:101F7000204602B0BDE8B040FFF7D4BD401A21684A
:101F800051E8031F226821F4907142E80313DBB18A
:101F9000216851E8031F226821F4907142E803137D
:101FA00093B1216851E8031F226821F4907142E83F
:101FB00003134BB1216851E8031F226821F490718B
:101FC00042E80313002BDAD1216851E8051F22688B
:101FD00021F0010142E80513DBB1216851E8051F3A
:101FE000226821F0010142E8051393B1216851E80C
:101FF000051F226821F0010142E805134BB1216859
:1020000051E8051F226821F0010142E80513002B69
:10201000DAD1202184F8421000212163216851E89F
:10202000031F226821F0100142E80313DBB121688D
:1020300051E8031F226821F0100142E8031393B115
:10204000216851E8031F226821F0100142E80313C0
:102050004BB1216851E8031F226821F0100142E8CA
:102060000313002BDAD1022281B22046626302B050
:10207000BDE8B040FFF754BD216A31F8022B6FF381
:102080005F22426021628CE5002804BF0120704776
:1020900010B5044690F8410028B9002084F84000AB
:1020A000204600F063F8242084F841002068D4E939
:1020B0000212C36823F40053C360036923F440533E
:1020C0001A430261D4E904231143C268194341F25F
:1020D0000C639A431143C1604169A26921F44071C4
:1020E000114343F60002C4F201029042416103D061
:1020F000FFF7FEFA02E000BFFFF70EFB626819214E
:1021000048439100B0FBF1F048F21F51C5F2EB11CA
:10211000A0FB01235A094FF69C73C0F6FF7302FB24
:102120000300322303EB0010A0FB0101F02303EABC
:102130005113206803EB0212C1F343111144816073
:10214000016921F490410161416921F02A01416155
:10215000C16841F40051C16000202021606484F80E
:10216000411084F84210606310BD0000F0B585B0E6
:1021700040F600050446C4F20105006805F540512B
:1021800000278842039701D005B0F0BD41F2180046
:10219000C4F20200016801AE41F4804101600168AF
:1021A00001F4804100910099016841F0040101604F
:1021B0000068314600F00400009000984FF4007071
:1021C000019002200290032004902846FEF7E0FED2
:1021D0004FF48060CDE90107284631460397FEF7AA
:1021E000D7FE40F214354420C2F20005C4F20200CA
:1021F000102180224FF4805385E883002846C5E9EA
:102200000327C5E90577EB61FEF730FE002818BF0C
:10221000FEF7E8F8252000210022A5636C62FFF795
:102220004DF82520FFF736F805B0F0BD70470000E7
:1022300070B5044690F8410020281CBF022070BDF4
:1022400000294FF001004DD0002A134608BF70BD91
:102250004FF0000C21202162A384E384C4F844C021
:1022600084F841002268A06B42F2615E42F211657F
:1022700042F2E536C0F6000EC0F60005C0F60006D4
:102280000432C0E90AE5C0E90C6CFEF733FE2068B1
:102290006FF04001016000BF206850E8050F216821
:1022A00040F0800041E80502F2B1206850E8050FD7
:1022B000216840F0800041E80502AAB1206850E89A
:1022C000050F216840F0800041E8050262B12068F6
:1022D00050E8050F216840F0800041E80502002A1F
:1022E000DAD1002070BD00BF002070BD006843F649
:1022F0000001C4F20101884218BF704740F270002B
:10230000C2F2000000210170704700007047000019
:10231000FEE70000FEE70000FEE700007047000057
:102320007047000070B5FEF74DFF40F23451C2F225
:1023300000010868013008600868B0F57A7F38BF8E
:1023400070BD002040F27C0C0860C2F2000CDCF88A
:10235000002040F23853C2F2000340F2800E1A60AF
:10236000C2F2000EDEF8003040F23C51C2F2000131
:102370000B6040F28401C2F200010B6840F240524F
:10238000C2F20002136040F28802C2F20002136837
:1023900040F24854C2F20004236040F28C03C2F2BF
:1023A00000031C6840F24C55C2F200052C6040F25C
:1023B0009004C2F20004256840F24456C2F20006BE
:1023C0003560CCF80000CEF800000860106018609E
:1023D000206070BD70470000406A0021C185C18443
:1023E000FFF7A0BB406A01684A6990F84130212B91
:1023F0002DD112F080022AD00021C184016851E859
:10240000031F026821F0C00142E80313DBB1016839
:1024100051E8031F026821F0C00142E8031393B1A1
:10242000016851E8031F026821F0C00142E803136C
:102430004BB1016851E8031F026821F0C00142E876
:102440000313002BDAD1202180F84110016849697B
:1024500090F84220222A40F07D8011F0400179D08E
:102460000021C185016851E8031F026821F49071C1
:1024700042E80313BBB3016851E8031F026821F46B
:10248000907142E8031373B3016851E8031F0268B7
:1024900021F4907142E803132BB3016851E8031F44
:1024A000026821F4907142E80313002BDAD11AE09C
:1024B000016851E8051F026821F0010142E8051397
:1024C000DBB1016851E8051F026821F0010142E813
:1024D000051393B1016851E8051F026821F001015D
:1024E00042E805134BB1016851E8051F026821F06D
:1024F000010142E80513002BDAD1016B012924D137
:10250000016851E8031F026821F0100142E803133B
:10251000DBB1016851E8031F026821F0100142E8B5
:10252000031393B1016851E8031F026821F0100101
:1025300042E803134BB1016851E8031F026821F020
:10254000100142E80313002BDAD1202180F8421059
:1025500000210163416C41F010014164FFF7E2BAD0
:102560000168406A0968890648BFFFF7BFBE0021BD
:10257000C18400BF016851E8051F026821F0800195
:1025800042E8051383B3016851E8051F026821F092
:10259000800142E805133BB3016851E8051F02685A
:1025A00021F0800142E80513F3B1016851E8051FED
:1025B000026821F0800142E80513002BDAD113E014
:1025C000016851E8031F026841F0400142E803132B
:1025D000002B08BF7047016851E8031F026841F0F3
:1025E000400142E8031393B1016851E8031F0268F8
:1025F00041F0400142E803134BB1016851E8031F69
:10260000026841F0400142E80313002BD8D1704723
:10261000406AFFF77BBE000081B090F8421022298B
:1026200021D183680246B3F5805F09D152F8281F93
:1026300052F8183C002B63D003685B680AE000BFC7
:1026400052F8281F13B90369002BF5D003685B68A3
:1026500003F07F030B70116801311160C18D0139E6
:102660000A04C18502D001B0704700BF0168CA6882
:1026700022F02002CA60CA6822F48072CA604A69E5
:1026800022F001024A61202180F8421000214163BA
:10269000026B012A3CD10163016851E8031F026803
:1026A00021F0100142E80313DBB1016851E8031F78
:1026B000026821F0100142E8031393B1016851E868
:1026C000031F026821F0100142E803134BB10168B7
:1026D00051E8031F026821F0100142E80313002BA8
:1026E000DAD101680A68D20606D5002200920A688B
:1026F0000092496800910099818D01B0FFF710BAEE
:10270000026852686FF35F2221F8022B8162A5E70D
:1027100001B0FFF78BBD000040F2EC40C2F20000B8
:10272000FFF702BAFEE7000094B0FEF759FD00245F
:102730000120CDE90F44CDE90D440E9010200F90FB
:102740004FF48010022513900AA8CDE90B4404949D
:10275000CDE902440A95CDE91154FEF7F1FF28B105
:10276000EFF3108072B600BFFEE700BF0F20CDE987
:10277000050505A80021CDE907440994FEF7D8FE18
:1027800020B1EFF3108072B6FEE700BF02270025EC
:1027900001A801970395FEF745FE28B1EFF31080DD
:1027A00072B600BFFEE700BF41F21804C4F2020493
:1027B000206841F2000840F0100020602068C4F258
:1027C000010800F010000A900A9820684FF40051A8
:1027D00040F0200020602068012200F020000A90D4
:1027E0000A9820684FF4005640F0040020602068EA
:1027F0004FF0010900F004000A900A984046FEF7E5
:10280000D5FC0AA94046CDE90A69CDE90C57FEF787
:10281000BFFB54F8040C012140F0010044F8040C03
:1028200054F8040C002200F001000A900A980B20D2
:10283000FEF744FD0B20FEF72DFD0E2000210022A7
:10284000FEF73CFD0E20FEF725FD40F27004C2F2BB
:10285000000408F5A051204640F8301F4FF46021D5
:1028600080F80C900575C161C0E90155C0F8109061
:10287000FEF724F820B1EFF3108072B6FEE700BF38
:10288000042004F13005CDE90A090AA92846CDF84B
:102890003090FDF735FE28B1EFF3108072B600BF1F
:1028A000FEE700BF40F2EC4008F52051C2F2000004
:1028B00000230C274FF4612280E80E00C0E90333A7
:1028C000C0E90573C361FFF7DFFB28B1EFF31080A8
:1028D00072B600BFFEE700BF2846FDF789FD40F253
:1028E000D001C2F2000128464FF48072FEF7E4F8EE
:1028F000FEE700002DE9F04F83B00029029000F0C0
:10290000BE8140F27004C2F20004D4E901A9D4E906
:102910000A68012901F0010000903FD14FF0000B3F
:102920000098002800F0AB81029830F81B50504608
:1029300000F074FA2F1A284648BF7F4200F0A2FA2E
:102940001D2F05460ED82846514600F0E3FB41F204
:102950006F21C3F6832100F011FB514600F092F97C
:10296000824660602846514600F0D4FB00F056FADB
:102970000446864240F32481B8F1070FC0F2778104
:10298000484600F04BFA40F27001B0F5FA6FC2F21F
:102990000001486240F22881203152E121F001001B
:1029A0004FF0000B019024E004F120010A6801328D
:1029B0000A604FF47A61B0F57A6F28BF08464CF68A
:1029C000CD41484340F25832C0F34650C2F20002B3
:1029D00052F82010013142F8201000254FF0000875
:1029E000E562A946A56001980BF1020B5845A66265
:1029F00096D0029830F81B50504600F00FFA2F1A6C
:102A0000284648BF7F4200F03DFA1D2F05460ED8EC
:102A10002846514600F07EFB41F26F21C3F6832128
:102A200000F0ACFA514600F02DF98246606028466D
:102A3000514600F06FFB00F0F1F9054686420DDDCE
:102A4000B8F1070F4BDB484600F0E8F9B0F5FA6F34
:102A5000606211D904F120012AE000BF08F10107EA
:102A60002846E76200F0F6F906464846314600F08F
:102A70008EF9B8BB38E000BFB0F5966F02D904F10B
:102A80001C0115E0B0F52F7F02D904F118010FE009
:102A9000B0F5AF7F02D904F1140109E0DC2803D9B5
:102AA00004F1100104E000BF972804D304F10C01E5
:102AB0000A6801320A604FF47A61B0F57A6F28BF74
:102AC00008464CF6CD41484340F25832C0F34650D8
:102AD000C2F2000252F82010013142F82010002604
:102AE0000027E662B146A6600298A56200EB4B00A3
:102AF0004688504600F092F9341A304648BF644286
:102B000000F0C0F91D2C064614D83046514600F09E
:102B100001FB41F26F21C3F6832100F02FFA5146E9
:102B200000F0B0F840F270048246C2F20004606027
:102B300004E000BF40F27004C2F200043046514687
:102B400000F0E8FA00F06AF90646854210DD072F2A
:102B5000FFF643AF484600F061F9B0F5FA6F6062E6
:102B60003FF622AFB0F5966F12D904F11C011DE7B4
:102B700007F101083046C4F82C8000F06BF90546D7
:102B80004846294600F003F900287FF42AAF2AE7D7
:102B9000B0F52F7F02D904F1180107E7B0F5AF7F38
:102BA00002D904F1140101E7DC2803D904F1100172
:102BB000FCE600BF9728FFF4FCAE04F10C01F5E63B
:102BC00040F2700608F10100C2F20006F0622046F1
:102BD00000F040F905464846294600F0D8F800289C
:102BE00018BFB5604AE000BFB0F5966F06D940F255
:102BF0007001C2F200011C3123E000BFB0F52F7F4D
:102C000006D940F27001C2F20001183119E000BF8C
:102C1000B0F5AF7F06D940F27001C2F20001143165
:102C20000FE000BFDC2805D940F27001C2F20001BC
:102C3000103106E0972807D340F27001C2F200017C
:102C40000C310A6801320A60B0F57A6F28BF4FF480
:102C50007A604CF6CD41484340F25831C0F34650BB
:102C6000C2F2000151F82020013241F8202040F248
:102C700070060025C2F20006F562B560B46203B0CA
:102C8000BDE8F08F90EA010F48BF81F0004100F1EC
:102C90004882421A3CBF801A89184FEAD052A2EBF0
:102CA000D1534FF07F4C1CEA410F18BF9CEA026FD2
:102CB00000F03B804FF0004C4CEA00204CEA012130
:102CC00021FA03FC10EB0C0C1ED202F1FF325FEA7A
:102CD0001C2040EBC25038BF70471CF07F0F4FEAFA
:102CE000400C18BFBCF17F4F38BF7047C3F12003C1
:102CF000994008BF20F00100BCF17F4F38BF7047FA
:102D0000A0F1C04000F001BA4FEA3C00000A40EBDD
:102D1000C25028BF1CF0FF0F4FEA400CE6D018BF8E
:102D2000BCF17F4F38BF7047EAE79CEA026F05D0DD
:102D300010EA5C0F08BF00F00040704710B500F0CB
:102D40009EF900BF64FBBE3E10B500F033F80CBF27
:102D50000120002010BD10B500F02CF814BF012098
:102D6000002010BD10B500F0A1F88CBF012000209C
:102D700010BD10B500F09AF82CBF0120002010BD46
:102D800010B500F0C7F894BF0120002010BD10B5A9
:102D900000F0C0F834BF0120002010BD401058BF23
:102DA000C0F14040491058BFC1F140418142EFF3AA
:102DB0000080704750EA010C00F113801CF5000FF1
:102DC00058BFBCF5000F01D48842704707D710F5F3
:102DD000000F58BF11F5000F15D488427047894283
:102DE00070471CF5000F04D5BCF5000FF7D58142E4
:102DF00070474FF0807C1CEB400F38BF1CEB410F3D
:102E000001D28142704710B500F039F9922449008F
:102E10004FF000504FF08051FFF7C0BF41000B0E44
:102E2000D3F19E0208D950F400034FEA032323FA9A
:102E300002F048BF4042704710B500F020F900BFD3
:102E400049922480002070476FF0004282EA2000FF
:102E50007047000010F0004148BF4042B0FA80F3D4
:102E600010FA03F2C3F19D030BD051EAC35101EBF9
:102E70001220530638BF704700F1010008BF20F050
:102E800001007047B0FA80F310FA03F2C3F19D031A
:102E90000AD0D90501EB1220530638BF704700F164
:102EA000010008BF20F001007047000050EA010C4B
:102EB00000F113801CF5000F58BFBCF5000F01D4C2
:102EC0008842704707D710F5000F58BF11F5000F63
:102ED00015D488427047894270471CF5000F04D50D
:102EE000BCF5000FF7D5814270474FF0807C1CEB9A
:102EF000400F38BF1CEB410F01D28142704710B523
:102F000000F0BDF8922449004FF080504FF000517E
:102F1000FFF744BF50EA010C00F113801CF5000FCD
:102F200058BFBCF5000F01D48842704707D710F591
:102F3000000F58BF11F5000F15D488427047894221
:102F400070471CF5000F04D5BCF5000FF7D5814282
:102F500070474FF0807C1CEB400F38BF1CEB410FDB
:102F600001D28142704710B500F089F892244900DF
:102F70004FF000504FF08051FFF710BF4FF47F0C1F
:102F80001CEAD0121EBF1CEAD11392EA0C0F93EA7E
:102F90000C0F00F0478090EA010F48BF42F48072A6
:102FA0004FF0004C4CEA00204CEA012102EB0302F6
:102FB000A0FB0113A2F50002002918BF43F0010392
:102FC0005B0028BF4FEA330342EB22425FEA132C37
:102FD0004CEBC2502EBFBCEB436FB2F57C0F704779
:102FE0004FEA036CBCF1004F08BF20F00100B2F5BE
:102FF0007C0F38BF70470BD582F0FF0212F5803F7F
:10300000C8BF704700F1C040D8BF00F00040704713
:1030100000F5000C5FEA4C0C48BF7047B0F1C040AF
:1030200000F073B80CEAD11390EA010F48BF42F4E4
:103030008072624538BF634504D280EA010000F027
:103040000040704710B500F01AF800BF8900013E3B
:1030500000F007B800F009B85FEA410C5FEA1C6CA9
:1030600008D080EA010000F050B85FEA400C5FEA47
:103070001C6CF6D14FF00040A0F5800070470EF1B7
:10308000020E2EF0030E5EF8044B244204D44FEAE5
:103090004102B2F17F4F11D84FEA4003B3F17F4FA5
:1030A0000CD80ED14FEAD07C0CEB4C0C0CF1020C7E
:1030B000B2F17F4F08BF4CEBD17C04E04FF0080C1D
:1030C00001E04FEAD17C0CEB4C0324FA03F404F04A
:1030D0000704B4F1040C06D20EEB840CBDE81040DA
:1030E0004CF0010C6047DFE80CF0070802024FF0DB
:1030F0000040A0F5800010BD0846420018BFD2F184
:10310000807288BF00F0004010BDFF2141EAD0501E
:10311000C005704790EA010F48BF81F000413FF5BC
:10312000B8AD421A04D882F00042A0EB020011446C
:103130004FEAD052A2EBD1534FF07F4C1CEA410F23
:1031400018BF9CEA026F4AD04FF0004C4CEA0020B6
:103150004CEA012121FA03FCB0EB0C0C0FD412F065
:10316000FE0F36D05FEA4C001DD5001240EBC25076
:1031700038BF70471CF03F0F18BF70470BE05FEA85
:103180001C20A2F1010240EBC25038BF70471CF076
:103190007F0F18BF7047C3F12003994014BF401E32
:1031A00020F0010070474FEA1223800808BF7047E3
:1031B000B0FA80FCA2EB0C02CCF1280C60FA0CF007
:1031C00093EA122F04BF00EBC25070474FEAC3705E
:1031D0007047130A5FEADC1008BF7047F6E79CEA05
:1031E000026F04D010EA5C0F08BF0020704710B5D2
:1031F000FFF745FF40DFF63E81F0004070470000DA
:103200000000000000000102030406070809000096
:103210000000010203040102020304050607080975
:103220000A0B0C0D0E0F1010483200080000002091
:10323000100000002801000858320008100000208B
:10324000C80C00004401000801000000100000004C
:0832500000127A0000000000EA
:04000005080000ED02
:00000001FF
